{
  "contractName": "VoteContract",
  "abi": [
    {
      "inputs": [
        {
          "internalType": "uint256",
          "name": "",
          "type": "uint256"
        },
        {
          "internalType": "address",
          "name": "",
          "type": "address"
        }
      ],
      "name": "hasVoted",
      "outputs": [
        {
          "internalType": "bool",
          "name": "",
          "type": "bool"
        }
      ],
      "stateMutability": "view",
      "type": "function",
      "constant": true
    },
    {
      "inputs": [],
      "name": "voteId",
      "outputs": [
        {
          "internalType": "uint256",
          "name": "",
          "type": "uint256"
        }
      ],
      "stateMutability": "view",
      "type": "function",
      "constant": true
    },
    {
      "inputs": [
        {
          "internalType": "uint256",
          "name": "",
          "type": "uint256"
        }
      ],
      "name": "votes",
      "outputs": [
        {
          "internalType": "string",
          "name": "title",
          "type": "string"
        },
        {
          "internalType": "uint256",
          "name": "deadline",
          "type": "uint256"
        },
        {
          "internalType": "bool",
          "name": "exists",
          "type": "bool"
        }
      ],
      "stateMutability": "view",
      "type": "function",
      "constant": true
    },
    {
      "inputs": [
        {
          "internalType": "string",
          "name": "_title",
          "type": "string"
        },
        {
          "internalType": "string[]",
          "name": "_options",
          "type": "string[]"
        },
        {
          "internalType": "uint256",
          "name": "_duration",
          "type": "uint256"
        }
      ],
      "name": "createVote",
      "outputs": [],
      "stateMutability": "nonpayable",
      "type": "function"
    },
    {
      "inputs": [
        {
          "internalType": "uint256",
          "name": "_voteId",
          "type": "uint256"
        },
        {
          "internalType": "uint256",
          "name": "_index",
          "type": "uint256"
        }
      ],
      "name": "vote",
      "outputs": [],
      "stateMutability": "nonpayable",
      "type": "function"
    },
    {
      "inputs": [
        {
          "internalType": "uint256",
          "name": "_voteId",
          "type": "uint256"
        }
      ],
      "name": "getVote",
      "outputs": [
        {
          "internalType": "string",
          "name": "",
          "type": "string"
        },
        {
          "internalType": "string[]",
          "name": "",
          "type": "string[]"
        },
        {
          "internalType": "uint256[]",
          "name": "",
          "type": "uint256[]"
        },
        {
          "internalType": "uint256",
          "name": "",
          "type": "uint256"
        }
      ],
      "stateMutability": "view",
      "type": "function",
      "constant": true
    },
    {
      "inputs": [],
      "name": "getVoteCount",
      "outputs": [
        {
          "internalType": "uint256",
          "name": "",
          "type": "uint256"
        }
      ],
      "stateMutability": "view",
      "type": "function",
      "constant": true
    }
  ],
  "bytecode": "0x6080604052600060025534801561001557600080fd5b50610bbe806100256000396000f3fe608060405234801561001057600080fd5b506004361061007d5760003560e01c80635df813301161005b5780635df81330146100e3578063b384abef14610105578063e7b3387c14610118578063fbb396511461012d5761007d565b806315dd015e1461008257806343859632146100975780635a55c1f0146100c0575b600080fd5b6100956100903660046107d6565b610135565b005b6100aa6100a53660046108b8565b61023d565b6040516100b7919061095e565b60405180910390f35b6100d36100ce3660046108a0565b61025d565b6040516100b79493929190610969565b6100f66100f13660046108a0565b61044b565b6040516100b793929190610a18565b6100956101133660046108f2565b6104f9565b6101206105d7565b6040516100b79190610abb565b6101206105dd565b6002825110156101605760405162461bcd60e51b815260040161015790610a8f565b60405180910390fd5b600254600090815260208181526040909120845190916101849183918701906105e3565b50825161019a9060018301906020860190610667565b50825167ffffffffffffffff8111156101c357634e487b7160e01b600052604160045260246000fd5b6040519080825280602002602001820160405280156101ec578160200160208202803683370190505b5080516102039160028401916020909101906106c0565b5061020e8242610aee565b600382015560048101805460ff191660011790556002805490600061023283610b41565b919050555050505050565b600160209081526000928352604080842090915290825290205460ff1681565b60608060606000806000808781526020019081526020016000209050806000018160010182600201836003015483805461029690610b06565b80601f01602080910402602001604051908101604052809291908181526020018280546102c290610b06565b801561030f5780601f106102e45761010080835404028352916020019161030f565b820191906000526020600020905b8154815290600101906020018083116102f257829003601f168201915b5050505050935082805480602002602001604051908101604052809291908181526020016000905b828210156103e357838290600052602060002001805461035690610b06565b80601f016020809104026020016040519081016040528092919081815260200182805461038290610b06565b80156103cf5780601f106103a4576101008083540402835291602001916103cf565b820191906000526020600020905b8154815290600101906020018083116103b257829003601f168201915b505050505081526020019060010190610337565b5050505092508180548060200260200160405190810160405280929190818152602001828054801561043457602002820191906000526020600020905b815481526020019060010190808311610420575b505050505091509450945094509450509193509193565b60006020819052908152604090208054819061046690610b06565b80601f016020809104026020016040519081016040528092919081815260200182805461049290610b06565b80156104df5780601f106104b4576101008083540402835291602001916104df565b820191906000526020600020905b8154815290600101906020018083116104c257829003601f168201915b50505050600383015460049093015491929160ff16905083565b600082815260016020908152604080832033845290915290205460ff16156105335760405162461bcd60e51b815260040161015790610a65565b60008281526020819052604090206003015442106105635760405162461bcd60e51b815260040161015790610a42565b600082815260208190526040902060020180548290811061059457634e487b7160e01b600052603260045260246000fd5b600091825260208220018054916105aa83610b41565b9091555050506000908152600160208181526040808420338552909152909120805460ff19169091179055565b60025490565b60025481565b8280546105ef90610b06565b90600052602060002090601f0160209004810192826106115760008555610657565b82601f1061062a57805160ff1916838001178555610657565b82800160010185558215610657579182015b8281111561065757825182559160200191906001019061063c565b506106639291506106fa565b5090565b8280548282559060005260206000209081019282156106b4579160200282015b828111156106b457825180516106a49184916020909101906105e3565b5091602001919060010190610687565b5061066392915061070f565b828054828255906000526020600020908101928215610657579160200282018281111561065757825182559160200191906001019061063c565b5b8082111561066357600081556001016106fb565b80821115610663576000610723828261072c565b5060010161070f565b50805461073890610b06565b6000825580601f1061074a5750610768565b601f01602090049060005260206000209081019061076891906106fa565b50565b600082601f83011261077b578081fd5b813567ffffffffffffffff81111561079557610795610b72565b6107a8601f8201601f1916602001610ac4565b8181528460208386010111156107bc578283fd5b816020850160208301379081016020019190915292915050565b6000806000606084860312156107ea578283fd5b833567ffffffffffffffff80821115610801578485fd5b61080d8783880161076b565b9450602091508186013581811115610823578485fd5b8601601f81018813610833578485fd5b80358281111561084557610845610b72565b6108528485830201610ac4565b8181528481019350828501875b83811015610888576108768c88843588010161076b565b8652948601949086019060010161085f565b50508096505050505050604084013590509250925092565b6000602082840312156108b1578081fd5b5035919050565b600080604083850312156108ca578182fd5b8235915060208301356001600160a01b03811681146108e7578182fd5b809150509250929050565b60008060408385031215610904578182fd5b50508035926020909101359150565b60008151808452815b818110156109385760208185018101518683018201520161091c565b818111156109495782602083870101525b50601f01601f19169290920160200192915050565b901515815260200190565b60006080825261097c6080830187610913565b602083820381850152818751808452828401915082838202850101838a01865b838110156109ca57601f198784030185526109b8838351610913565b9486019492509085019060010161099c565b5050868103604088015288518082529084019450915050818701845b82811015610a02578151855293830193908301906001016109e6565b5050505060609290920192909252949350505050565b600060608252610a2b6060830186610913565b602083019490945250901515604090910152919050565b6020808252600990820152681d74f11d56121d721560bb1b604082015260600190565b60208082526010908201526f1d93b69d75f7041db1159db2339db2b560831b604082015260600190565b6020808252601290820152713b2d673b21a3080cbaac27083b65613b26a560721b604082015260600190565b90815260200190565b60405181810167ffffffffffffffff81118282101715610ae657610ae6610b72565b604052919050565b60008219821115610b0157610b01610b5c565b500190565b600281046001821680610b1a57607f821691505b60208210811415610b3b57634e487b7160e01b600052602260045260246000fd5b50919050565b6000600019821415610b5557610b55610b5c565b5060010190565b634e487b7160e01b600052601160045260246000fd5b634e487b7160e01b600052604160045260246000fdfea2646970667358221220ec4bcb34af15ec62cc0d7991a6c3ef640d6b9d8e3eef4270ef1fcf189ce4b93f64736f6c63430008000033",
  "immutableReferences": {},
  "source": "// SPDX-License-Identifier: MIT\r\npragma solidity ^0.8.0;\r\n\r\ncontract VoteContract {\r\n    struct Vote {\r\n        string title;\r\n        string[] options;\r\n        uint[] counts;\r\n        uint deadline;\r\n        bool exists;\r\n    }\r\n\r\n    mapping(uint => Vote) public votes;\r\n    mapping(uint => mapping(address => bool)) public hasVoted;\r\n    uint public voteId = 0;\r\n\r\n    function createVote(string memory _title, string[] memory _options, uint _duration) public {\r\n        require(_options.length >= 2, unicode\" 2 \");\r\n        Vote storage v = votes[voteId];\r\n        v.title = _title;\r\n        v.options = _options;\r\n        v.counts = new uint[](_options.length);\r\n        v.deadline = block.timestamp + _duration;\r\n        v.exists = true;\r\n        voteId++;\r\n    }\r\n\r\n    function vote(uint _voteId, uint _index) public {\r\n        require(!hasVoted[_voteId][msg.sender], unicode\" \");\r\n        require(block.timestamp < votes[_voteId].deadline, unicode\"\");\r\n        votes[_voteId].counts[_index]++;\r\n        hasVoted[_voteId][msg.sender] = true;\r\n    }\r\n\r\n    function getVote(uint _voteId) public view returns (\r\n        string memory, string[] memory, uint[] memory, uint\r\n    ) {\r\n        Vote storage v = votes[_voteId];\r\n        return (v.title, v.options, v.counts, v.deadline);\r\n    }\r\n\r\n    function getVoteCount() public view returns (uint) {\r\n        return voteId;\r\n    }\r\n}\r\n",
  "sourcePath": "D:\\goblox\\porject\\smart-contract\\contracts\\VoteContract.sol",
  "compiler": {
    "name": "solc",
    "version": "0.8.0+commit.c7dfd78e.Emscripten.clang"
  },
  "schemaVersion": "3.4.16",
  "updatedAt": "2025-06-23T01:57:14.357Z",
  "networkType": "ethereum",
  "devdoc": {
    "kind": "dev",
    "methods": {},
    "version": 1
  },
  "userdoc": {
    "kind": "user",
    "methods": {},
    "version": 1
  }
}